:02000000422993
:10000800F000030EF1000A08F20083018A010B1DBB
:1000180008298B1E08290B11561D7328320803194D
:100028001F28013A03193728033A03194D28013AC2
:10003800031965286F28013083120313B200860163
:10004800F0308505D61D2E28C008031D2E280A303D
:1000580085043228831203133D08850482308312F5
:10006800031386040729023083120313B2008601A2
:10007800F0308505D61D4528400B45280A308504F3
:100088004928831203133E088504831203130615B7
:100098000729033083120313B2008601F030850567
:1000A800D61D5D284008023A031D5D280A308504E4
:1000B8006128831203133F088504831203138615EE
:1000C800072983120313B2018601F03085050A302F
:1000D80085040614072983120313B2010729831222
:1000E8000313D61CB428320803198428013A0319CB
:1000F8008F28033A03199B28013A0319A628B02828
:10010800013083120313B2008601F03085053608EA
:10011800850486140729023083120313B20086016E
:10012800F0308505370885048430860407290330B4
:1001380083120313B2008601F03085053808850460
:100148008615072983120313B2018601F03085054D
:10015800350885040614072983120313B2010729F9
:100168008312031332080319C328013A0319D52847
:10017800033A0319E728013A0319F328042901303F
:1001880083120313B2008601F03085053A0885040E
:10019800BA1FD128823086040729831203138614D4
:1001A8000729023083120313B2008601F030850557
:1001B8003B088504BB1FE328843086040729831283
:1001C800031306150729033083120313B2008601AF
:1001D800F03085053C088504883086040729831299
:1001E8000313B2018601F030850539088504B91F6B
:1001F800002981308604072983120313061407296E
:1002080083120313B2010B11831203130C1C16295A
:1002180083160C1C162983120C10F80A7808323A37
:1002280003195614831203138C1C3B2983168C1C48
:100238003B2983128C10FA0B3B29561D2D29D61DFC
:100248002729D6112A2983120313D6151630FA0046
:100258003B29FA0183120313D61C3629D6104830DD
:10026800FA003B2983120313D6144830FA007208A7
:100278008A00710E8300F00E700E090083010730AA
:100288009F008316850170308600C4308100831278
:10029800970183168C0183128C018B0190018E01CA
:1002A8008F017B3092000B178B1683160C148C145D
:1002B8008B1783121215AE01AF01B001B101B50160
:1002C800B601B701B801B901BA01BB01BC01BD0152
:1002D800BE01BF01B201D6105615D611B30183165F
:1002E8009B011C14831603131C1876298316031309
:1002F8001A088312B4003408442783120313290808
:10030800BD002808BE002708BF00061B8C29851AD7
:100318005324831203133408442783120313290830
:10032800BD002808BE002708BF00831203138E01F2
:100338008F01F801F601F70110100C105610FB019F
:100348007B1AB229FB1AB229831203130608FB0091
:10035800061FA429851EA4295324A4298312031344
:1003680010148B12F03086055611FB1EC4297B1A17
:10037800CD29831203135618CD290608FB00BB2983
:10038800FB1ACD29831203135618CD290608FB0042
:10039800C4298312031310148B16561CF229121148
:1003A8005610B501B601B701B801B901BA01BB01D0
:1003B800BC0101306E238B12F030831203138605C3
:1003C80001306E238B1601306E238B12F0308312AE
:1003D8000313860501306E238B16652B83120313D6
:1003E800B30A9423831203134E08AA004F08AB00E4
:1003F800B626831203131215A8080319062A28081B
:10040800B5000A2A0A3083120313B50083120313B6
:10041800A708031D122AA8080319172A8312031311
:100428002708B6001B2A0A3083120313B60083126A
:1004380003132608B7002508B8003E2583120313C6
:100448005308C1005208C2005508C3005408C4002C
:10045800A8250630831203132002031C642AA10A6C
:1004680021080A3A031D642AA101A20A22080A3AAD
:10047800031D642AA201A30A23080A3A031D642A59
:10048800A301A40A24080A3A031D642AA401A50AA0
:1004980025080A3A031D642AA501A60A26080A3A6D
:1004A800031D642AA601A70A27080A3A031D642A1D
:1004B800A701A80A28080A3A031D642AA801A90A5C
:1004C8000630831203132102031C952AA20A22086C
:1004D8000A3A031D952AA201A30A23080A3A031D12
:1004E800952AA301A40A24080A3A031D952AA401FF
:1004F800A50A25080A3A031D952AA501A60A260871
:100508000A3A031D952AA601A70A27080A3A031DD5
:10051800952AA701A80A28080A3A031D952AA801BE
:10052800A90A0630831203132202031CC02AA30A55
:1005380023080A3A031DC02AA301A40A24080A3A78
:10054800031DC02AA401A50A25080A3A031DC02ACA
:10055800A501A60A26080A3A031DC02AA601A70A69
:1005680027080A3A031DC02AA701A80A28080A3A38
:10057800031DC02AA801A90A063083120313230207
:10058800031CE52AA40A24080A3A031DE52AA40143
:10059800A50A25080A3A031DE52AA501A60A260880
:1005A8000A3A031DE52AA601A70A27080A3A031DE5
:1005B800E52AA701A80A28080A3A031DE52AA8017E
:1005C800A90A83120313A90803192C2B0630240245
:1005D800031C072BA50A25080A3A031D072BA501AA
:1005E800A60A26080A3A031D072BA601A70A270808
:1005F8000A3A031D072BA701A80A28080A3A031D6F
:10060800072BA801A90A0630831203132502031C2D
:10061800202BA60A26080A3A031D202BA601A70AA2
:1006280027080A3A031D202BA701A80A28080A3A16
:10063800031D202BA801A90A831203132908B90056
:100648002808BA002708BB002608BC00BB17652B82
:1006580083120313A80803195A2B06302402031C1B
:100668004E2BA50A25080A3A031D4E2BA501A60AFA
:1006780026080A3A031D4E2BA601A70A27080A3A9C
:10068800031D4E2BA701A80A28080A3A031D4E2B62
:10069800A801A90A831203132808B9002708BA0079
:1006A8002608BB002508BC00BA17652B8312031364
:1006B8002708B9002608BA002508BB002408BC0092
:1006C800B91783120313061A652B861A652B013096
:1006D8006E23992983120313AA0083120313AA080D
:1006E80003198B2BAA03FF30AB0083120313AB084B
:1006F8000319712BAB03FF30AC0083120313AC0852
:100708000319792BAC03000000000000812B0800BE
:100718001D30FF00FF080319932BFF038E2B0800E1
:1007280083120313AA010630AB005530AC00183011
:10073800AD00CE01CF01AA01F808031DA92B0F08AF
:10074800031DA92B0E080319DB2B831203130E08B4
:10075800AD020318BC2B0130AC020318BC2B0130CE
:10076800AB020318BC2BAB0AAC0A0E08AD07DB2B97
:10077800831203130F08AC020318CC2B0130AB0211
:100788000318CC2BAB0A0F08AC070E08AD07DB2B00
:10079800780883120313AB020318D52B7808AB072C
:1007A800DB2B83120313CE0A0319CF0AA92B83125A
:1007B80003132D08CA002C08C9002B08C800031011
:1007C800CA0DC90DC80D0310CA0DC90DC80D0310F7
:1007D800CA0DC90DC80D0310AD0DAC0DAB0D4A08FF
:1007E800AD07031CFB2B0130AC070318AB0A8312BF
:1007F80003134908AC070318AB0A8312031348080C
:10080800AB07831203130E08AD020318182C01302E
:10081800AC020318182C0130AB020318182CAB0AD1
:10082800AC0A0E08AD07352C831203130F08AC026F
:100838000318282C0130AB020318282CAB0A0F0828
:10084800AC070E08AD07352C780883120313AB02EA
:100858000318312C7808AB07352C83120313AA0A26
:10086800052C831203134E08F4004F08F5000310FB
:10087800CF0DCE0DCF0DCE0DCF0DCE0D7508CF07F8
:100888007408CE070318CF0A7508CF077408CE0777
:100898000318CF0A2A08CE070318CF0A08008312C4
:1008A8000313061B532C851A532C83120313340885
:1008B8004427831203132908BD002808BE0027080F
:1008C800BF001630FA005615C00103308312031317
:1008D80040020318DF2C061FB32C400803197B2C99
:1008E800013A0319842C033A0319972CAD2C83126F
:1008F8000313BD0A03303D02031CAD2CBD01AD2C12
:1009080083120313BE0A0A303E020318932C3D08D3
:10091800023A031DAD2C06303E02031CAD2C831297
:100928000313BE01AD2C83120313BF0A0A303F0222
:100938000318AA2C3D08023A031DAD2C3E08053ABF
:10094800031DAD2C06303F02031CAD2C831203138C
:10095800BF0183120313061BAD2C02306E238312D2
:100968000313851E692CC00A400BC42C3D08023AAB
:10097800031DC42C06303E02031CC42C0530BE00E7
:10098800831203134008023A031DD82C3D08023A8B
:10099800031DD82C3E08053A031DD82C06303F020B
:1009A800031CD82C0530BF0083120313851AD82CDA
:1009B80002306E23692C831203133D08B4003408F7
:1009C800AB000830AA00031083120313B40DAB0D5B
:1009D800031CF02C6430B40783120313AA0BE72C12
:1009E8003E08F3000310730DF307F3070310F30D2C
:1009F8007308B4073F08B40783169B011C148316B9
:100A080003131C18032D831603131A0883123406C4
:100A18000319202D340883169A009B011C158B138B
:100A28008B1F182D8B13142D5530831603139D001F
:100A3800AA309D009C148B1783120313D6118B12B6
:100A4800F030860501306E238B1601306E238B1231
:100A5800F03083120313860501306E238B160130A4
:100A68006E238B12F03083120313860501306E2338
:100A78008B16080083120313D201D301D401D501C8
:100A88004E08D0004F08D1008312031350085104B8
:100A980003196B2D4E08D407031C5A2D0130D507B6
:100AA800031C5A2D0130D2070318D30A83120313EB
:100AB8004F08D507031C642D0130D2070318D30A49
:100AC80083120313D003500A0319D103482D0310CE
:100AD80083120313D30CD20CD50CD40C5308AA00E0
:100AE8005208AB005508AC005408AD00D201D30140
:100AF800D401D5013408C00083120313C0080319B8
:100B0800A72D2D08D407031C912D0130D507031CF0
:100B1800912D0130D2070318D30A831203132C082E
:100B2800D507031C9B2D0130D2070318D30A831263
:100B380003132B08D2070318D30A831203132A08B6
:100B4800D307C003802D080083120313A901A8014D
:100B5800A701A601A501A401A301A201A101A00169
:100B680029308400D42528308400D42527308400F7
:100B7800D42526308400D42525308400D42524307B
:100B88008400D42523308400D42522308400D42541
:100B980021308400D425831203134408A0000800E0
:100BA8000408293A0319F12D013A0319FB2D0F3ACC
:100BB8000319052E013A03190F2E033A0319192EAA
:100BC800013A0319232E073A03192C2E013A031967
:100BD800352E033A03193D2E442E3B30831203135E
:100BE800AA009A30AB00CA30AC00AD01442E0530E3
:100BF80083120313AA00F530AB00E130AC00AD015D
:100C0800442E83120313AA019830AB009630AC002F
:100C18008030AD00442E83120313AA010F30AB00BD
:100C28004230AC004030AD00442E83120313AA01B9
:100C38000130AB008630AC00A030AD00442E8312EA
:100C48000313AA01AB012730AC001030AD00442ECD
:100C580083120313AA01AB010330AC00E830AD00E6
:100C6800442E83120313AA01AB01AC016430AD001A
:100C7800442E83120313AA01AB01AC010A30AD0064
:100C880083120313AA080319502E2A08C102031855
:100C9800502E2A08C107B52E83120313AB08031977
:100CA8006A2E2B08C20203186A2E2B08C2070130CD
:100CB800C1020318632EC10A2A08C107B52EF30121
:100CC800831203132B08F3027308C207831203135A
:100CD800AC0803198B2E2C08C30203188B2E2C0882
:100CE800C3070130C2020318842E0130C102031861
:100CF800842EC10AC20A2B08C2072A08C107B52ECA
:100D0800F301831203132C08F3027308C307831239
:100D18000313AD080319B32E2D08C4020318B32E0C
:100D28002D08C4070130C3020318AC2E0130C202DB
:100D38000318AC2E0130C1020318AC2EC10AC20A36
:100D4800C30A2C08C3072B08C2072A08C107B52EF7
:100D5800F301831203132D08F3027308C407800AF2
:100D6800442E080083120313A901A801A701A601B4
:100D7800A50127302B02031CC72E031DCB2E1030D4
:100D88002A020318CB2E83120313A901E12E273060
:100D9800831203132B02031CE12E031DD72E1030E0
:100DA8002A02031CE12E273083120313AB021030F2
:100DB800AA02031CAB03A90ACB2E03308312031328
:100DC8002B02031CED2E031DF12EE8302A02031816
:100DD800F12E83120313A801072F03308312031384
:100DE8002B02031C072F031DFD2EE8302A02031CCB
:100DF800072F033083120313AB02E830AA02031C47
:100E0800AB03A80AF12E831203132B08031D122F1C
:100E180064302A020318122FA701232F8312031309
:100E28002B08031D1B2F64302A02031C232F643058
:100E380083120313AA02031CAB03A70A122F8312FF
:100E480003132B08031D2E2F0A302A0203182E2FF6
:100E5800A6013F2F831203132B08031D372F0A30D7
:100E68002A02031C3F2F0A3083120313AA02031C11
:100E7800AB03A60A2E2F831203132A08A500080025
:100E880083120313AA00A901A801A70164302A024A
:100E98000318502FA9015A2F6430831203132A0212
:100EA800031C5A2F6430AA02A90A502F0A30831251
:100EB80003132A020318622FA8016C2F0A30831229
:100EC80003132A02031C6C2F0A30AA02A80A622FF5
:0A0ED800831203132A08A700080084
:02400E00023F6F
:00000001FF
